{
  "contractName": "transfusioncontract",
  "abi": [
    {
      "inputs": [],
      "stateMutability": "nonpayable",
      "type": "constructor"
    },
    {
      "inputs": [
        {
          "internalType": "uint256",
          "name": "",
          "type": "uint256"
        }
      ],
      "name": "alladdress",
      "outputs": [
        {
          "internalType": "address payable",
          "name": "",
          "type": "address"
        }
      ],
      "stateMutability": "view",
      "type": "function"
    },
    {
      "inputs": [
        {
          "internalType": "uint256",
          "name": "",
          "type": "uint256"
        }
      ],
      "name": "alladdressrecp",
      "outputs": [
        {
          "internalType": "address payable",
          "name": "",
          "type": "address"
        }
      ],
      "stateMutability": "view",
      "type": "function"
    },
    {
      "inputs": [],
      "name": "authaddress",
      "outputs": [
        {
          "internalType": "address",
          "name": "",
          "type": "address"
        }
      ],
      "stateMutability": "view",
      "type": "function"
    },
    {
      "inputs": [
        {
          "internalType": "address",
          "name": "",
          "type": "address"
        }
      ],
      "name": "authusers",
      "outputs": [
        {
          "internalType": "uint256",
          "name": "authuserid",
          "type": "uint256"
        },
        {
          "internalType": "string",
          "name": "username",
          "type": "string"
        }
      ],
      "stateMutability": "view",
      "type": "function"
    },
    {
      "inputs": [
        {
          "internalType": "uint256",
          "name": "",
          "type": "uint256"
        }
      ],
      "name": "donors",
      "outputs": [
        {
          "internalType": "uint256",
          "name": "userid",
          "type": "uint256"
        },
        {
          "internalType": "uint256",
          "name": "donorid",
          "type": "uint256"
        },
        {
          "internalType": "string",
          "name": "donarname",
          "type": "string"
        },
        {
          "internalType": "uint256",
          "name": "donorage",
          "type": "uint256"
        },
        {
          "internalType": "string",
          "name": "gender",
          "type": "string"
        },
        {
          "internalType": "string",
          "name": "bloodgrp",
          "type": "string"
        },
        {
          "internalType": "uint256",
          "name": "status",
          "type": "uint256"
        },
        {
          "internalType": "uint256",
          "name": "recpId",
          "type": "uint256"
        },
        {
          "internalType": "bool",
          "name": "req",
          "type": "bool"
        },
        {
          "internalType": "uint256",
          "name": "claimstatus",
          "type": "uint256"
        }
      ],
      "stateMutability": "view",
      "type": "function"
    },
    {
      "inputs": [
        {
          "internalType": "address",
          "name": "",
          "type": "address"
        }
      ],
      "name": "donorusers",
      "outputs": [
        {
          "internalType": "uint256",
          "name": "donaruserid",
          "type": "uint256"
        },
        {
          "internalType": "string",
          "name": "username",
          "type": "string"
        }
      ],
      "stateMutability": "view",
      "type": "function"
    },
    {
      "inputs": [
        {
          "internalType": "uint256",
          "name": "",
          "type": "uint256"
        }
      ],
      "name": "recipients",
      "outputs": [
        {
          "internalType": "uint256",
          "name": "userid",
          "type": "uint256"
        },
        {
          "internalType": "uint256",
          "name": "recipientid",
          "type": "uint256"
        },
        {
          "internalType": "string",
          "name": "recipientname",
          "type": "string"
        },
        {
          "internalType": "uint256",
          "name": "recipientage",
          "type": "uint256"
        },
        {
          "internalType": "string",
          "name": "gender",
          "type": "string"
        },
        {
          "internalType": "string",
          "name": "reqbloodgrp",
          "type": "string"
        },
        {
          "internalType": "uint256",
          "name": "status",
          "type": "uint256"
        }
      ],
      "stateMutability": "view",
      "type": "function"
    },
    {
      "inputs": [
        {
          "internalType": "address",
          "name": "",
          "type": "address"
        }
      ],
      "name": "recipientusers",
      "outputs": [
        {
          "internalType": "uint256",
          "name": "recipientuserid",
          "type": "uint256"
        },
        {
          "internalType": "string",
          "name": "username",
          "type": "string"
        }
      ],
      "stateMutability": "view",
      "type": "function"
    },
    {
      "inputs": [
        {
          "internalType": "address",
          "name": "",
          "type": "address"
        }
      ],
      "name": "trxndata",
      "outputs": [
        {
          "internalType": "uint256",
          "name": "data",
          "type": "uint256"
        }
      ],
      "stateMutability": "view",
      "type": "function"
    },
    {
      "inputs": [
        {
          "internalType": "address",
          "name": "_tokenadd",
          "type": "address"
        }
      ],
      "name": "settokenaddress",
      "outputs": [],
      "stateMutability": "nonpayable",
      "type": "function"
    },
    {
      "inputs": [],
      "name": "getbalance",
      "outputs": [
        {
          "internalType": "uint256",
          "name": "",
          "type": "uint256"
        }
      ],
      "stateMutability": "view",
      "type": "function"
    },
    {
      "inputs": [],
      "name": "getauthuser",
      "outputs": [
        {
          "components": [
            {
              "internalType": "uint256",
              "name": "authuserid",
              "type": "uint256"
            },
            {
              "internalType": "string",
              "name": "username",
              "type": "string"
            }
          ],
          "internalType": "struct transfusioncontract.Authreg",
          "name": "",
          "type": "tuple"
        }
      ],
      "stateMutability": "view",
      "type": "function"
    },
    {
      "inputs": [
        {
          "internalType": "address",
          "name": "authuseraddress",
          "type": "address"
        },
        {
          "internalType": "string",
          "name": "_username",
          "type": "string"
        }
      ],
      "name": "signupauth",
      "outputs": [],
      "stateMutability": "nonpayable",
      "type": "function"
    },
    {
      "inputs": [
        {
          "internalType": "address payable",
          "name": "donaruseraddress",
          "type": "address"
        },
        {
          "internalType": "string",
          "name": "_username",
          "type": "string"
        }
      ],
      "name": "signupdonor",
      "outputs": [],
      "stateMutability": "nonpayable",
      "type": "function"
    },
    {
      "inputs": [
        {
          "internalType": "address payable",
          "name": "recipientuseraddress",
          "type": "address"
        },
        {
          "internalType": "string",
          "name": "_username",
          "type": "string"
        }
      ],
      "name": "signuprecipient",
      "outputs": [],
      "stateMutability": "nonpayable",
      "type": "function"
    },
    {
      "inputs": [
        {
          "internalType": "address",
          "name": "donaraddress",
          "type": "address"
        },
        {
          "internalType": "string",
          "name": "_donorname",
          "type": "string"
        },
        {
          "internalType": "uint256",
          "name": "_donorage",
          "type": "uint256"
        },
        {
          "internalType": "string",
          "name": "_gender",
          "type": "string"
        },
        {
          "internalType": "string",
          "name": "_bloodgrp",
          "type": "string"
        },
        {
          "internalType": "uint256",
          "name": "_status",
          "type": "uint256"
        }
      ],
      "name": "adddonors",
      "outputs": [],
      "stateMutability": "nonpayable",
      "type": "function"
    },
    {
      "inputs": [],
      "name": "fetchdonors",
      "outputs": [
        {
          "components": [
            {
              "internalType": "uint256",
              "name": "userid",
              "type": "uint256"
            },
            {
              "internalType": "uint256",
              "name": "donorid",
              "type": "uint256"
            },
            {
              "internalType": "string",
              "name": "donarname",
              "type": "string"
            },
            {
              "internalType": "uint256",
              "name": "donorage",
              "type": "uint256"
            },
            {
              "internalType": "string",
              "name": "gender",
              "type": "string"
            },
            {
              "internalType": "string",
              "name": "bloodgrp",
              "type": "string"
            },
            {
              "internalType": "uint256",
              "name": "status",
              "type": "uint256"
            },
            {
              "internalType": "uint256",
              "name": "recpId",
              "type": "uint256"
            },
            {
              "internalType": "bool",
              "name": "req",
              "type": "bool"
            },
            {
              "internalType": "uint256",
              "name": "claimstatus",
              "type": "uint256"
            }
          ],
          "internalType": "struct transfusioncontract.Donorsprofile[]",
          "name": "",
          "type": "tuple[]"
        }
      ],
      "stateMutability": "view",
      "type": "function"
    },
    {
      "inputs": [],
      "name": "fetchdonoruser",
      "outputs": [
        {
          "components": [
            {
              "internalType": "uint256",
              "name": "donaruserid",
              "type": "uint256"
            },
            {
              "internalType": "string",
              "name": "username",
              "type": "string"
            },
            {
              "internalType": "uint256[]",
              "name": "donoridlist",
              "type": "uint256[]"
            }
          ],
          "internalType": "struct transfusioncontract.Donorreg",
          "name": "",
          "type": "tuple"
        }
      ],
      "stateMutability": "view",
      "type": "function"
    },
    {
      "inputs": [
        {
          "internalType": "address",
          "name": "recipientaddress",
          "type": "address"
        },
        {
          "internalType": "string",
          "name": "_recipientname",
          "type": "string"
        },
        {
          "internalType": "uint256",
          "name": "_recipientage",
          "type": "uint256"
        },
        {
          "internalType": "string",
          "name": "_gender",
          "type": "string"
        },
        {
          "internalType": "string",
          "name": "_reqbloodgrp",
          "type": "string"
        },
        {
          "internalType": "uint256",
          "name": "_status",
          "type": "uint256"
        }
      ],
      "name": "addrecipients",
      "outputs": [],
      "stateMutability": "nonpayable",
      "type": "function"
    },
    {
      "inputs": [],
      "name": "fetchrecipients",
      "outputs": [
        {
          "components": [
            {
              "internalType": "uint256",
              "name": "userid",
              "type": "uint256"
            },
            {
              "internalType": "uint256",
              "name": "recipientid",
              "type": "uint256"
            },
            {
              "internalType": "string",
              "name": "recipientname",
              "type": "string"
            },
            {
              "internalType": "uint256",
              "name": "recipientage",
              "type": "uint256"
            },
            {
              "internalType": "string",
              "name": "gender",
              "type": "string"
            },
            {
              "internalType": "string",
              "name": "reqbloodgrp",
              "type": "string"
            },
            {
              "internalType": "uint256",
              "name": "status",
              "type": "uint256"
            }
          ],
          "internalType": "struct transfusioncontract.RecipientProfile[]",
          "name": "",
          "type": "tuple[]"
        }
      ],
      "stateMutability": "view",
      "type": "function"
    },
    {
      "inputs": [],
      "name": "fetchrecipientuser",
      "outputs": [
        {
          "components": [
            {
              "internalType": "uint256",
              "name": "recipientuserid",
              "type": "uint256"
            },
            {
              "internalType": "string",
              "name": "username",
              "type": "string"
            },
            {
              "internalType": "uint256[]",
              "name": "recipientidlist",
              "type": "uint256[]"
            }
          ],
          "internalType": "struct transfusioncontract.Recipientreg",
          "name": "",
          "type": "tuple"
        }
      ],
      "stateMutability": "view",
      "type": "function"
    },
    {
      "inputs": [
        {
          "internalType": "uint256",
          "name": "index",
          "type": "uint256"
        }
      ],
      "name": "approvebyauthorizer",
      "outputs": [],
      "stateMutability": "nonpayable",
      "type": "function"
    },
    {
      "inputs": [
        {
          "internalType": "uint256",
          "name": "index",
          "type": "uint256"
        }
      ],
      "name": "denybyauthorizer",
      "outputs": [],
      "stateMutability": "nonpayable",
      "type": "function"
    },
    {
      "inputs": [
        {
          "internalType": "uint256",
          "name": "index",
          "type": "uint256"
        }
      ],
      "name": "approvebyauthorizerforrecp",
      "outputs": [],
      "stateMutability": "nonpayable",
      "type": "function"
    },
    {
      "inputs": [
        {
          "internalType": "uint256",
          "name": "index",
          "type": "uint256"
        }
      ],
      "name": "denybyauthorizerforrecp",
      "outputs": [],
      "stateMutability": "nonpayable",
      "type": "function"
    },
    {
      "inputs": [],
      "name": "getdonrec",
      "outputs": [
        {
          "internalType": "uint256",
          "name": "",
          "type": "uint256"
        },
        {
          "internalType": "uint256",
          "name": "",
          "type": "uint256"
        }
      ],
      "stateMutability": "view",
      "type": "function"
    },
    {
      "inputs": [
        {
          "internalType": "uint256",
          "name": "donorindex",
          "type": "uint256"
        }
      ],
      "name": "claimdonor",
      "outputs": [],
      "stateMutability": "nonpayable",
      "type": "function"
    },
    {
      "inputs": [
        {
          "internalType": "uint256",
          "name": "donorindex",
          "type": "uint256"
        }
      ],
      "name": "approveclaim",
      "outputs": [],
      "stateMutability": "nonpayable",
      "type": "function"
    },
    {
      "inputs": [
        {
          "internalType": "uint256",
          "name": "donorindex",
          "type": "uint256"
        }
      ],
      "name": "denyclaim",
      "outputs": [],
      "stateMutability": "nonpayable",
      "type": "function"
    },
    {
      "inputs": [],
      "name": "fetchdonarrecpdata",
      "outputs": [
        {
          "components": [
            {
              "internalType": "uint256",
              "name": "userid",
              "type": "uint256"
            },
            {
              "internalType": "uint256",
              "name": "donorid",
              "type": "uint256"
            },
            {
              "internalType": "string",
              "name": "donarname",
              "type": "string"
            },
            {
              "internalType": "uint256",
              "name": "donorage",
              "type": "uint256"
            },
            {
              "internalType": "string",
              "name": "gender",
              "type": "string"
            },
            {
              "internalType": "string",
              "name": "bloodgrp",
              "type": "string"
            },
            {
              "internalType": "uint256",
              "name": "status",
              "type": "uint256"
            },
            {
              "internalType": "uint256",
              "name": "recpId",
              "type": "uint256"
            },
            {
              "internalType": "bool",
              "name": "req",
              "type": "bool"
            },
            {
              "internalType": "uint256",
              "name": "claimstatus",
              "type": "uint256"
            }
          ],
          "internalType": "struct transfusioncontract.Donorsprofile[]",
          "name": "",
          "type": "tuple[]"
        },
        {
          "components": [
            {
              "internalType": "uint256",
              "name": "userid",
              "type": "uint256"
            },
            {
              "internalType": "uint256",
              "name": "recipientid",
              "type": "uint256"
            },
            {
              "internalType": "string",
              "name": "recipientname",
              "type": "string"
            },
            {
              "internalType": "uint256",
              "name": "recipientage",
              "type": "uint256"
            },
            {
              "internalType": "string",
              "name": "gender",
              "type": "string"
            },
            {
              "internalType": "string",
              "name": "reqbloodgrp",
              "type": "string"
            },
            {
              "internalType": "uint256",
              "name": "status",
              "type": "uint256"
            }
          ],
          "internalType": "struct transfusioncontract.RecipientProfile[]",
          "name": "",
          "type": "tuple[]"
        }
      ],
      "stateMutability": "view",
      "type": "function"
    },
    {
      "inputs": [
        {
          "internalType": "address",
          "name": "user",
          "type": "address"
        }
      ],
      "name": "fetchtransactiondata",
      "outputs": [
        {
          "internalType": "uint256",
          "name": "",
          "type": "uint256"
        }
      ],
      "stateMutability": "view",
      "type": "function"
    },
    {
      "inputs": [
        {
          "internalType": "uint256",
          "name": "userid",
          "type": "uint256"
        }
      ],
      "name": "gettransfusionsummarydata",
      "outputs": [
        {
          "components": [
            {
              "internalType": "uint256",
              "name": "donaruserid",
              "type": "uint256"
            },
            {
              "internalType": "string",
              "name": "username",
              "type": "string"
            },
            {
              "internalType": "uint256[]",
              "name": "donoridlist",
              "type": "uint256[]"
            }
          ],
          "internalType": "struct transfusioncontract.Donorreg",
          "name": "",
          "type": "tuple"
        }
      ],
      "stateMutability": "view",
      "type": "function"
    },
    {
      "inputs": [
        {
          "internalType": "uint256",
          "name": "userid",
          "type": "uint256"
        },
        {
          "internalType": "uint256",
          "name": "amount",
          "type": "uint256"
        }
      ],
      "name": "performtransaction",
      "outputs": [],
      "stateMutability": "nonpayable",
      "type": "function"
    },
    {
      "inputs": [
        {
          "internalType": "address",
          "name": "user",
          "type": "address"
        },
        {
          "internalType": "uint256",
          "name": "amount",
          "type": "uint256"
        }
      ],
      "name": "performairdrop",
      "outputs": [],
      "stateMutability": "nonpayable",
      "type": "function"
    }
  ],
  "bytecode": "0x6080604052600060065560006008556000600a556000600c556000600d55600060105534801561002e57600080fd5b5033600460006101000a81548173ffffffffffffffffffffffffffffffffffffffff021916908373ffffffffffffffffffffffffffffffffffffffff160217905550614af08061007f6000396000f3fe608060405234801561001057600080fd5b50600436106102065760003560e01c80638a9f7e171161011a578063c3006b81116100ad578063e95f5f791161007c578063e95f5f791461060c578063eb4aa8e614610628578063f70ab92d14610644578063fd019b8f14610675578063fe8b80651461069357610206565b8063c3006b811461056e578063d1bc76a11461058a578063e716611a146105c0578063e754baac146105dc57610206565b8063aedaa8c9116100e9578063aedaa8c9146104fc578063afe3da171461051a578063b1d16fba14610536578063bd5f451f1461055257610206565b80638a9f7e17146104635780638bfad20a1461047f57806399e849ad1461049b578063a9a36ca3146104cc57610206565b806349bd1fac1161019d5780636d7aacd31161016c5780636d7aacd3146103bf57806372f60f90146103de5780637d09b559146103fa57806389d6efea146104165780638a3aa5b81461044757610206565b806349bd1fac1461032c5780634abfa1631461034a5780634d9b3d5d146103835780634eee99e9146103a157610206565b8063244f3c71116101d9578063244f3c71146102a65780632461fcdc146102c257806326432237146102f257806334a9acc51461031057610206565b8063031146421461020b5780630512c6161461023b5780631a9ff2b314610257578063206872f914610287575b600080fd5b610225600480360381019061022091906137c8565b6106b1565b6040516102329190613836565b60405180910390f35b610255600480360381019061025091906137c8565b6106f0565b005b610271600480360381019061026c91906137c8565b61075e565b60405161027e9190613836565b60405180910390f35b61028f61079d565b60405161029d929190613860565b60405180910390f35b6102c060048036038101906102bb9190613a0d565b6107ae565b005b6102dc60048036038101906102d79190613a69565b610881565b6040516102e99190613a96565b60405180910390f35b6102fa61097e565b6040516103079190613c45565b60405180910390f35b61032a60048036038101906103259190613c67565b610acf565b005b610334610d75565b6040516103419190613d57565b60405180910390f35b610364600480360381019061035f91906137c8565b610d9b565b60405161037a9a99989796959493929190613dd7565b60405180910390f35b61038b610f94565b6040516103989190613a96565b60405180910390f35b6103a9611037565b6040516103b69190613edf565b60405180910390f35b6103c7611188565b6040516103d5929190614226565b60405180910390f35b6103f860048036038101906103f391906137c8565b611993565b005b610414600480360381019061040f91906137c8565b611a01565b005b610430600480360381019061042b9190613a69565b611a6f565b60405161043e92919061425d565b60405180910390f35b610461600480360381019061045c91906137c8565b611b1b565b005b61047d60048036038101906104789190613c67565b611b89565b005b6104996004803603810190610494919061428d565b611e7d565b005b6104b560048036038101906104b09190613a69565b611f22565b6040516104c392919061425d565b60405180910390f35b6104e660048036038101906104e19190613a69565b611fce565b6040516104f39190613a96565b60405180910390f35b610504611fec565b60405161051191906142cd565b60405180910390f35b610534600480360381019061052f91906142ef565b6123db565b005b610550600480360381019061054b91906137c8565b6126e9565b005b61056c60048036038101906105679190613a69565b612794565b005b6105886004803603810190610583919061435b565b6127d8565b005b6105a4600480360381019061059f91906137c8565b61299d565b6040516105b797969594939291906143b7565b60405180910390f35b6105da60048036038101906105d591906137c8565b612b77565b005b6105f660048036038101906105f191906137c8565b612be5565b6040516106039190613edf565b60405180910390f35b6106266004803603810190610621919061435b565b612e2f565b005b610642600480360381019061063d91906137c8565b612ff4565b005b61065e60048036038101906106599190613a69565b613062565b60405161066c92919061425d565b60405180910390f35b61067d61310e565b60405161068a9190614478565b60405180910390f35b61069b613207565b6040516106a8919061449a565b60405180910390f35b600181815481106106c157600080fd5b906000526020600020016000915054906101000a900473ffffffffffffffffffffffffffffffffffffffff1681565b6000600760003373ffffffffffffffffffffffffffffffffffffffff1673ffffffffffffffffffffffffffffffffffffffff168152602001908152602001600020600001540361073f57600080fd5b6001600e60008381526020019081526020016000206006018190555050565b6002818154811061076e57600080fd5b906000526020600020016000915054906101000a900473ffffffffffffffffffffffffffffffffffffffff1681565b600080600d54601054915091509091565b60016006546107bd91906144eb565b6006819055506040518060400160405280600654815260200182815250600760008473ffffffffffffffffffffffffffffffffffffffff1673ffffffffffffffffffffffffffffffffffffffff168152602001908152602001600020600082015181600001556020820151816001019081610838919061472b565b5090505081600360006101000a81548173ffffffffffffffffffffffffffffffffffffffff021916908373ffffffffffffffffffffffffffffffffffffffff1602179055505050565b600080600560009054906101000a900473ffffffffffffffffffffffffffffffffffffffff1673ffffffffffffffffffffffffffffffffffffffff166370a08231846040518263ffffffff1660e01b81526004016108df9190613d57565b602060405180830381865afa1580156108fc573d6000803e3d6000fd5b505050506040513d601f19601f820116820180604052508101906109209190614812565b90506000600f60008573ffffffffffffffffffffffffffffffffffffffff1673ffffffffffffffffffffffffffffffffffffffff1681526020019081526020016000206000015482610972919061483f565b90508092505050919050565b610986613626565b6000600b60003373ffffffffffffffffffffffffffffffffffffffff1673ffffffffffffffffffffffffffffffffffffffff168152602001908152602001600020604051806060016040529081600082015481526020016001820180546109ec9061454e565b80601f0160208091040260200160405190810160405280929190818152602001828054610a189061454e565b8015610a655780601f10610a3a57610100808354040283529160200191610a65565b820191906000526020600020905b815481529060010190602001808311610a4857829003601f168201915b5050505050815260200160028201805480602002602001604051908101604052809291908181526020018280548015610abd57602002820191906000526020600020905b815481526020019060010190808311610aa9575b50505050508152505090508091505090565b6000600b60003373ffffffffffffffffffffffffffffffffffffffff1673ffffffffffffffffffffffffffffffffffffffff1681526020019081526020016000206000015403610b1e57600080fd5b6001601054610b2d91906144eb565b6010819055506000600b60003373ffffffffffffffffffffffffffffffffffffffff1673ffffffffffffffffffffffffffffffffffffffff1681526020019081526020016000206000015490506000600b60003373ffffffffffffffffffffffffffffffffffffffff1673ffffffffffffffffffffffffffffffffffffffff1681526020019081526020016000206001018054610bc99061454e565b80601f0160208091040260200160405190810160405280929190818152602001828054610bf59061454e565b8015610c425780601f10610c1757610100808354040283529160200191610c42565b820191906000526020600020905b815481529060010190602001808311610c2557829003601f168201915b50505050509050600b60008973ffffffffffffffffffffffffffffffffffffffff1673ffffffffffffffffffffffffffffffffffffffff16815260200190815260200160002060020160105490806001815401808255809150506001900390600052602060002001600090919091909150556040518060e0016040528083815260200160105481526020018281526020018781526020018681526020018581526020018481525060116000601054815260200190815260200160002060008201518160000155602082015181600101556040820151816002019081610d27919061472b565b50606082015181600301556080820151816004019081610d47919061472b565b5060a0820151816005019081610d5d919061472b565b5060c082015181600601559050505050505050505050565b600360009054906101000a900473ffffffffffffffffffffffffffffffffffffffff1681565b600e602052806000526040600020600091509050806000015490806001015490806002018054610dca9061454e565b80601f0160208091040260200160405190810160405280929190818152602001828054610df69061454e565b8015610e435780601f10610e1857610100808354040283529160200191610e43565b820191906000526020600020905b815481529060010190602001808311610e2657829003601f168201915b505050505090806003015490806004018054610e5e9061454e565b80601f0160208091040260200160405190810160405280929190818152602001828054610e8a9061454e565b8015610ed75780601f10610eac57610100808354040283529160200191610ed7565b820191906000526020600020905b815481529060010190602001808311610eba57829003601f168201915b505050505090806005018054610eec9061454e565b80601f0160208091040260200160405190810160405280929190818152602001828054610f189061454e565b8015610f655780601f10610f3a57610100808354040283529160200191610f65565b820191906000526020600020905b815481529060010190602001808311610f4857829003601f168201915b5050505050908060060154908060070154908060080160009054906101000a900460ff1690806009015490508a565b6000600560009054906101000a900473ffffffffffffffffffffffffffffffffffffffff1673ffffffffffffffffffffffffffffffffffffffff166370a08231336040518263ffffffff1660e01b8152600401610ff19190613d57565b602060405180830381865afa15801561100e573d6000803e3d6000fd5b505050506040513d601f19601f820116820180604052508101906110329190614812565b905090565b61103f613647565b6000600960003373ffffffffffffffffffffffffffffffffffffffff1673ffffffffffffffffffffffffffffffffffffffff168152602001908152602001600020604051806060016040529081600082015481526020016001820180546110a59061454e565b80601f01602080910402602001604051908101604052809291908181526020018280546110d19061454e565b801561111e5780601f106110f35761010080835404028352916020019161111e565b820191906000526020600020905b81548152906001019060200180831161110157829003601f168201915b505050505081526020016002820180548060200260200160405190810160405280929190818152602001828054801561117657602002820191906000526020600020905b815481526020019060010190808311611162575b50505050508152505090508091505090565b6060806000600d5467ffffffffffffffff8111156111a9576111a86138e2565b5b6040519080825280602002602001820160405280156111e257816020015b6111cf613668565b8152602001906001900390816111c75790505b509050600060105467ffffffffffffffff811115611203576112026138e2565b5b60405190808252806020026020018201604052801561123c57816020015b6112296136bd565b8152602001906001900390816112215790505b5090506000805b6001805490508110156115f95760005b600960006001848154811061126b5761126a614873565b5b9060005260206000200160009054906101000a900473ffffffffffffffffffffffffffffffffffffffff1673ffffffffffffffffffffffffffffffffffffffff1673ffffffffffffffffffffffffffffffffffffffff168152602001908152602001600020600201805490508110156115e557600e600060096000600186815481106112fa576112f9614873565b5b9060005260206000200160009054906101000a900473ffffffffffffffffffffffffffffffffffffffff1673ffffffffffffffffffffffffffffffffffffffff1673ffffffffffffffffffffffffffffffffffffffff168152602001908152602001600020600201838154811061137457611373614873565b5b906000526020600020015481526020019081526020016000206040518061014001604052908160008201548152602001600182015481526020016002820180546113bd9061454e565b80601f01602080910402602001604051908101604052809291908181526020018280546113e99061454e565b80156114365780601f1061140b57610100808354040283529160200191611436565b820191906000526020600020905b81548152906001019060200180831161141957829003601f168201915b50505050508152602001600382015481526020016004820180546114599061454e565b80601f01602080910402602001604051908101604052809291908181526020018280546114859061454e565b80156114d25780601f106114a7576101008083540402835291602001916114d2565b820191906000526020600020905b8154815290600101906020018083116114b557829003601f168201915b505050505081526020016005820180546114eb9061454e565b80601f01602080910402602001604051908101604052809291908181526020018280546115179061454e565b80156115645780601f1061153957610100808354040283529160200191611564565b820191906000526020600020905b81548152906001019060200180831161154757829003601f168201915b5050505050815260200160068201548152602001600782015481526020016008820160009054906101000a900460ff161515151581526020016009820154815250508584815181106115b9576115b8614873565b5b602002602001018190525082806115cf906148a2565b93505080806115dd906148a2565b915050611253565b5080806115f1906148a2565b915050611243565b506000805b6002805490508110156119845760005b600b60006002848154811061162657611625614873565b5b9060005260206000200160009054906101000a900473ffffffffffffffffffffffffffffffffffffffff1673ffffffffffffffffffffffffffffffffffffffff1673ffffffffffffffffffffffffffffffffffffffff168152602001908152602001600020600201805490508110156119705760116000600b6000600286815481106116b5576116b4614873565b5b9060005260206000200160009054906101000a900473ffffffffffffffffffffffffffffffffffffffff1673ffffffffffffffffffffffffffffffffffffffff1673ffffffffffffffffffffffffffffffffffffffff168152602001908152602001600020600201838154811061172f5761172e614873565b5b906000526020600020015481526020019081526020016000206040518060e001604052908160008201548152602001600182015481526020016002820180546117779061454e565b80601f01602080910402602001604051908101604052809291908181526020018280546117a39061454e565b80156117f05780601f106117c5576101008083540402835291602001916117f0565b820191906000526020600020905b8154815290600101906020018083116117d357829003601f168201915b50505050508152602001600382015481526020016004820180546118139061454e565b80601f016020809104026020016040519081016040528092919081815260200182805461183f9061454e565b801561188c5780601f106118615761010080835404028352916020019161188c565b820191906000526020600020905b81548152906001019060200180831161186f57829003601f168201915b505050505081526020016005820180546118a59061454e565b80601f01602080910402602001604051908101604052809291908181526020018280546118d19061454e565b801561191e5780601f106118f35761010080835404028352916020019161191e565b820191906000526020600020905b81548152906001019060200180831161190157829003601f168201915b5050505050815260200160068201548152505085848151811061194457611943614873565b5b6020026020010181905250828061195a906148a2565b9350508080611968906148a2565b91505061160e565b50808061197c906148a2565b9150506115fe565b50838395509550505050509091565b6000600760003373ffffffffffffffffffffffffffffffffffffffff1673ffffffffffffffffffffffffffffffffffffffff16815260200190815260200160002060000154036119e257600080fd5b6002601160008381526020019081526020016000206006018190555050565b6000600760003373ffffffffffffffffffffffffffffffffffffffff1673ffffffffffffffffffffffffffffffffffffffff1681526020019081526020016000206000015403611a5057600080fd5b6002600e60008381526020019081526020016000206006018190555050565b6009602052806000526040600020600091509050806000015490806001018054611a989061454e565b80601f0160208091040260200160405190810160405280929190818152602001828054611ac49061454e565b8015611b115780601f10611ae657610100808354040283529160200191611b11565b820191906000526020600020905b815481529060010190602001808311611af457829003601f168201915b5050505050905082565b6000600760003373ffffffffffffffffffffffffffffffffffffffff1673ffffffffffffffffffffffffffffffffffffffff1681526020019081526020016000206000015403611b6a57600080fd5b6002600e60008381526020019081526020016000206009018190555050565b6000600960003373ffffffffffffffffffffffffffffffffffffffff1673ffffffffffffffffffffffffffffffffffffffff1681526020019081526020016000206000015403611bd857600080fd5b6001600d54611be791906144eb565b600d819055506000600960003373ffffffffffffffffffffffffffffffffffffffff1673ffffffffffffffffffffffffffffffffffffffff1681526020019081526020016000206000015490506000600960003373ffffffffffffffffffffffffffffffffffffffff1673ffffffffffffffffffffffffffffffffffffffff1681526020019081526020016000206001018054611c839061454e565b80601f0160208091040260200160405190810160405280929190818152602001828054611caf9061454e565b8015611cfc5780601f10611cd157610100808354040283529160200191611cfc565b820191906000526020600020905b815481529060010190602001808311611cdf57829003601f168201915b50505050509050600960008973ffffffffffffffffffffffffffffffffffffffff1673ffffffffffffffffffffffffffffffffffffffff168152602001908152602001600020600201600d549080600181540180825580915050600190039060005260206000200160009091909190915055604051806101400160405280838152602001600d548152602001828152602001878152602001868152602001858152602001848152602001600081526020016000151581526020016000815250600e6000600d54815260200190815260200160002060008201518160000155602082015181600101556040820151816002019081611df9919061472b565b50606082015181600301556080820151816004019081611e19919061472b565b5060a0820151816005019081611e2f919061472b565b5060c0820151816006015560e082015181600701556101008201518160080160006101000a81548160ff02191690831515021790555061012082015181600901559050505050505050505050565b600560009054906101000a900473ffffffffffffffffffffffffffffffffffffffff1673ffffffffffffffffffffffffffffffffffffffff1663a9059cbb83836040518363ffffffff1660e01b8152600401611eda9291906148ea565b6020604051808303816000875af1158015611ef9573d6000803e3d6000fd5b505050506040513d601f19601f82011682018060405250810190611f1d919061493f565b505050565b6007602052806000526040600020600091509050806000015490806001018054611f4b9061454e565b80601f0160208091040260200160405190810160405280929190818152602001828054611f779061454e565b8015611fc45780601f10611f9957610100808354040283529160200191611fc4565b820191906000526020600020905b815481529060010190602001808311611fa757829003601f168201915b5050505050905082565b600f6020528060005260406000206000915090508060000154905081565b6060600060105467ffffffffffffffff81111561200c5761200b6138e2565b5b60405190808252806020026020018201604052801561204557816020015b6120326136bd565b81526020019060019003908161202a5790505b5090506000805b6002805490508110156123d25760005b600b60006002848154811061207457612073614873565b5b9060005260206000200160009054906101000a900473ffffffffffffffffffffffffffffffffffffffff1673ffffffffffffffffffffffffffffffffffffffff1673ffffffffffffffffffffffffffffffffffffffff168152602001908152602001600020600201805490508110156123be5760116000600b60006002868154811061210357612102614873565b5b9060005260206000200160009054906101000a900473ffffffffffffffffffffffffffffffffffffffff1673ffffffffffffffffffffffffffffffffffffffff1673ffffffffffffffffffffffffffffffffffffffff168152602001908152602001600020600201838154811061217d5761217c614873565b5b906000526020600020015481526020019081526020016000206040518060e001604052908160008201548152602001600182015481526020016002820180546121c59061454e565b80601f01602080910402602001604051908101604052809291908181526020018280546121f19061454e565b801561223e5780601f106122135761010080835404028352916020019161223e565b820191906000526020600020905b81548152906001019060200180831161222157829003601f168201915b50505050508152602001600382015481526020016004820180546122619061454e565b80601f016020809104026020016040519081016040528092919081815260200182805461228d9061454e565b80156122da5780601f106122af576101008083540402835291602001916122da565b820191906000526020600020905b8154815290600101906020018083116122bd57829003601f168201915b505050505081526020016005820180546122f39061454e565b80601f016020809104026020016040519081016040528092919081815260200182805461231f9061454e565b801561236c5780601f106123415761010080835404028352916020019161236c565b820191906000526020600020905b81548152906001019060200180831161234f57829003601f168201915b5050505050815260200160068201548152505084848151811061239257612391614873565b5b602002602001018190525082806123a8906148a2565b93505080806123b6906148a2565b91505061205c565b5080806123ca906148a2565b91505061204c565b50819250505090565b600080600090505b6001805490508110156124d05783600960006001848154811061240957612408614873565b5b9060005260206000200160009054906101000a900473ffffffffffffffffffffffffffffffffffffffff1673ffffffffffffffffffffffffffffffffffffffff1673ffffffffffffffffffffffffffffffffffffffff16815260200190815260200160002060000154036124bd576001818154811061248b5761248a614873565b5b9060005260206000200160009054906101000a900473ffffffffffffffffffffffffffffffffffffffff1691506124d0565b80806124c8906148a2565b9150506123e3565b5081600560009054906101000a900473ffffffffffffffffffffffffffffffffffffffff1673ffffffffffffffffffffffffffffffffffffffff166370a08231336040518263ffffffff1660e01b815260040161252d9190613d57565b602060405180830381865afa15801561254a573d6000803e3d6000fd5b505050506040513d601f19601f8201168201806040525081019061256e9190614812565b10156125af576040517f08c379a00000000000000000000000000000000000000000000000000000000081526004016125a6906149b8565b60405180910390fd5b81600f60003373ffffffffffffffffffffffffffffffffffffffff1673ffffffffffffffffffffffffffffffffffffffff168152602001908152602001600020600001546125fd91906144eb565b600f60003373ffffffffffffffffffffffffffffffffffffffff1673ffffffffffffffffffffffffffffffffffffffff16815260200190815260200160002060000181905550600560009054906101000a900473ffffffffffffffffffffffffffffffffffffffff1673ffffffffffffffffffffffffffffffffffffffff1663a9059cbb82846040518363ffffffff1660e01b81526004016126a0929190614a2d565b6020604051808303816000875af11580156126bf573d6000803e3d6000fd5b505050506040513d601f19601f820116820180604052508101906126e3919061493f565b50505050565b600b60003373ffffffffffffffffffffffffffffffffffffffff1673ffffffffffffffffffffffffffffffffffffffff16815260200190815260200160002060000154600e6000838152602001908152602001600020600701819055506001600e600083815260200190815260200160002060080160006101000a81548160ff0219169083151502179055506001600e60008381526020019081526020016000206009018190555050565b80600560006101000a81548173ffffffffffffffffffffffffffffffffffffffff021916908373ffffffffffffffffffffffffffffffffffffffff16021790555050565b6001600a546127e791906144eb565b600a8190555060606040518060600160405280600a54815260200183815260200182815250600b60008573ffffffffffffffffffffffffffffffffffffffff1673ffffffffffffffffffffffffffffffffffffffff16815260200190815260200160002060008201518160000155602082015181600101908161286a919061472b565b5060408201518160020190805190602001906128879291906136fa565b509050506002839080600181540180825580915050600190039060005260206000200160009091909190916101000a81548173ffffffffffffffffffffffffffffffffffffffff021916908373ffffffffffffffffffffffffffffffffffffffff160217905550600560009054906101000a900473ffffffffffffffffffffffffffffffffffffffff1673ffffffffffffffffffffffffffffffffffffffff1663a9059cbb846802b5e3af16b18800006040518363ffffffff1660e01b8152600401612954929190614a91565b6020604051808303816000875af1158015612973573d6000803e3d6000fd5b505050506040513d601f19601f82011682018060405250810190612997919061493f565b50505050565b60116020528060005260406000206000915090508060000154908060010154908060020180546129cc9061454e565b80601f01602080910402602001604051908101604052809291908181526020018280546129f89061454e565b8015612a455780601f10612a1a57610100808354040283529160200191612a45565b820191906000526020600020905b815481529060010190602001808311612a2857829003601f168201915b505050505090806003015490806004018054612a609061454e565b80601f0160208091040260200160405190810160405280929190818152602001828054612a8c9061454e565b8015612ad95780601f10612aae57610100808354040283529160200191612ad9565b820191906000526020600020905b815481529060010190602001808311612abc57829003601f168201915b505050505090806005018054612aee9061454e565b80601f0160208091040260200160405190810160405280929190818152602001828054612b1a9061454e565b8015612b675780601f10612b3c57610100808354040283529160200191612b67565b820191906000526020600020905b815481529060010190602001808311612b4a57829003601f168201915b5050505050908060060154905087565b6000600760003373ffffffffffffffffffffffffffffffffffffffff1673ffffffffffffffffffffffffffffffffffffffff1681526020019081526020016000206000015403612bc657600080fd5b6003600e60008381526020019081526020016000206009018190555050565b612bed613647565b600080600090505b600180549050811015612ce257836009600060018481548110612c1b57612c1a614873565b5b9060005260206000200160009054906101000a900473ffffffffffffffffffffffffffffffffffffffff1673ffffffffffffffffffffffffffffffffffffffff1673ffffffffffffffffffffffffffffffffffffffff1681526020019081526020016000206000015403612ccf5760018181548110612c9d57612c9c614873565b5b9060005260206000200160009054906101000a900473ffffffffffffffffffffffffffffffffffffffff169150612ce2565b8080612cda906148a2565b915050612bf5565b506000600960008373ffffffffffffffffffffffffffffffffffffffff1673ffffffffffffffffffffffffffffffffffffffff16815260200190815260200160002060405180606001604052908160008201548152602001600182018054612d499061454e565b80601f0160208091040260200160405190810160405280929190818152602001828054612d759061454e565b8015612dc25780601f10612d9757610100808354040283529160200191612dc2565b820191906000526020600020905b815481529060010190602001808311612da557829003601f168201915b5050505050815260200160028201805480602002602001604051908101604052809291908181526020018280548015612e1a57602002820191906000526020600020905b815481526020019060010190808311612e06575b50505050508152505090508092505050919050565b6001600854612e3e91906144eb565b60088190555060606040518060600160405280600854815260200183815260200182815250600960008573ffffffffffffffffffffffffffffffffffffffff1673ffffffffffffffffffffffffffffffffffffffff168152602001908152602001600020600082015181600001556020820151816001019081612ec1919061472b565b506040820151816002019080519060200190612ede9291906136fa565b509050506001839080600181540180825580915050600190039060005260206000200160009091909190916101000a81548173ffffffffffffffffffffffffffffffffffffffff021916908373ffffffffffffffffffffffffffffffffffffffff160217905550600560009054906101000a900473ffffffffffffffffffffffffffffffffffffffff1673ffffffffffffffffffffffffffffffffffffffff1663a9059cbb846802b5e3af16b18800006040518363ffffffff1660e01b8152600401612fab929190614a91565b6020604051808303816000875af1158015612fca573d6000803e3d6000fd5b505050506040513d601f19601f82011682018060405250810190612fee919061493f565b50505050565b6000600760003373ffffffffffffffffffffffffffffffffffffffff1673ffffffffffffffffffffffffffffffffffffffff168152602001908152602001600020600001540361304357600080fd5b6001601160008381526020019081526020016000206006018190555050565b600b60205280600052604060002060009150905080600001549080600101805461308b9061454e565b80601f01602080910402602001604051908101604052809291908181526020018280546130b79061454e565b80156131045780601f106130d957610100808354040283529160200191613104565b820191906000526020600020905b8154815290600101906020018083116130e757829003601f168201915b5050505050905082565b613116613747565b6000600760003373ffffffffffffffffffffffffffffffffffffffff1673ffffffffffffffffffffffffffffffffffffffff1681526020019081526020016000206040518060400160405290816000820154815260200160018201805461317c9061454e565b80601f01602080910402602001604051908101604052809291908181526020018280546131a89061454e565b80156131f55780601f106131ca576101008083540402835291602001916131f5565b820191906000526020600020905b8154815290600101906020018083116131d857829003601f168201915b50505050508152505090508091505090565b60606000600d5467ffffffffffffffff811115613227576132266138e2565b5b60405190808252806020026020018201604052801561326057816020015b61324d613668565b8152602001906001900390816132455790505b5090506000805b60018054905081101561361d5760005b600960006001848154811061328f5761328e614873565b5b9060005260206000200160009054906101000a900473ffffffffffffffffffffffffffffffffffffffff1673ffffffffffffffffffffffffffffffffffffffff1673ffffffffffffffffffffffffffffffffffffffff1681526020019081526020016000206002018054905081101561360957600e6000600960006001868154811061331e5761331d614873565b5b9060005260206000200160009054906101000a900473ffffffffffffffffffffffffffffffffffffffff1673ffffffffffffffffffffffffffffffffffffffff1673ffffffffffffffffffffffffffffffffffffffff168152602001908152602001600020600201838154811061339857613397614873565b5b906000526020600020015481526020019081526020016000206040518061014001604052908160008201548152602001600182015481526020016002820180546133e19061454e565b80601f016020809104026020016040519081016040528092919081815260200182805461340d9061454e565b801561345a5780601f1061342f5761010080835404028352916020019161345a565b820191906000526020600020905b81548152906001019060200180831161343d57829003601f168201915b505050505081526020016003820154815260200160048201805461347d9061454e565b80601f01602080910402602001604051908101604052809291908181526020018280546134a99061454e565b80156134f65780601f106134cb576101008083540402835291602001916134f6565b820191906000526020600020905b8154815290600101906020018083116134d957829003601f168201915b5050505050815260200160058201805461350f9061454e565b80601f016020809104026020016040519081016040528092919081815260200182805461353b9061454e565b80156135885780601f1061355d57610100808354040283529160200191613588565b820191906000526020600020905b81548152906001019060200180831161356b57829003601f168201915b5050505050815260200160068201548152602001600782015481526020016008820160009054906101000a900460ff161515151581526020016009820154815250508484815181106135dd576135dc614873565b5b602002602001018190525082806135f3906148a2565b9350508080613601906148a2565b915050613277565b508080613615906148a2565b915050613267565b50819250505090565b60405180606001604052806000815260200160608152602001606081525090565b60405180606001604052806000815260200160608152602001606081525090565b6040518061014001604052806000815260200160008152602001606081526020016000815260200160608152602001606081526020016000815260200160008152602001600015158152602001600081525090565b6040518060e00160405280600081526020016000815260200160608152602001600081526020016060815260200160608152602001600081525090565b828054828255906000526020600020908101928215613736579160200282015b8281111561373557825182559160200191906001019061371a565b5b5090506137439190613761565b5090565b604051806040016040528060008152602001606081525090565b5b8082111561377a576000816000905550600101613762565b5090565b6000604051905090565b600080fd5b600080fd5b6000819050919050565b6137a581613792565b81146137b057600080fd5b50565b6000813590506137c28161379c565b92915050565b6000602082840312156137de576137dd613788565b5b60006137ec848285016137b3565b91505092915050565b600073ffffffffffffffffffffffffffffffffffffffff82169050919050565b6000613820826137f5565b9050919050565b61383081613815565b82525050565b600060208201905061384b6000830184613827565b92915050565b61385a81613792565b82525050565b60006040820190506138756000830185613851565b6138826020830184613851565b9392505050565b6000613894826137f5565b9050919050565b6138a481613889565b81146138af57600080fd5b50565b6000813590506138c18161389b565b92915050565b600080fd5b600080fd5b6000601f19601f8301169050919050565b7f4e487b7100000000000000000000000000000000000000000000000000000000600052604160045260246000fd5b61391a826138d1565b810181811067ffffffffffffffff82111715613939576139386138e2565b5b80604052505050565b600061394c61377e565b90506139588282613911565b919050565b600067ffffffffffffffff821115613978576139776138e2565b5b613981826138d1565b9050602081019050919050565b82818337600083830152505050565b60006139b06139ab8461395d565b613942565b9050828152602081018484840111156139cc576139cb6138cc565b5b6139d784828561398e565b509392505050565b600082601f8301126139f4576139f36138c7565b5b8135613a0484826020860161399d565b91505092915050565b60008060408385031215613a2457613a23613788565b5b6000613a32858286016138b2565b925050602083013567ffffffffffffffff811115613a5357613a5261378d565b5b613a5f858286016139df565b9150509250929050565b600060208284031215613a7f57613a7e613788565b5b6000613a8d848285016138b2565b91505092915050565b6000602082019050613aab6000830184613851565b92915050565b613aba81613792565b82525050565b600081519050919050565b600082825260208201905092915050565b60005b83811015613afa578082015181840152602081019050613adf565b60008484015250505050565b6000613b1182613ac0565b613b1b8185613acb565b9350613b2b818560208601613adc565b613b34816138d1565b840191505092915050565b600081519050919050565b600082825260208201905092915050565b6000819050602082019050919050565b6000613b778383613ab1565b60208301905092915050565b6000602082019050919050565b6000613b9b82613b3f565b613ba58185613b4a565b9350613bb083613b5b565b8060005b83811015613be1578151613bc88882613b6b565b9750613bd383613b83565b925050600181019050613bb4565b5085935050505092915050565b6000606083016000830151613c066000860182613ab1565b5060208301518482036020860152613c1e8282613b06565b91505060408301518482036040860152613c388282613b90565b9150508091505092915050565b60006020820190508181036000830152613c5f8184613bee565b905092915050565b60008060008060008060c08789031215613c8457613c83613788565b5b6000613c9289828a016138b2565b965050602087013567ffffffffffffffff811115613cb357613cb261378d565b5b613cbf89828a016139df565b9550506040613cd089828a016137b3565b945050606087013567ffffffffffffffff811115613cf157613cf061378d565b5b613cfd89828a016139df565b935050608087013567ffffffffffffffff811115613d1e57613d1d61378d565b5b613d2a89828a016139df565b92505060a0613d3b89828a016137b3565b9150509295509295509295565b613d5181613889565b82525050565b6000602082019050613d6c6000830184613d48565b92915050565b600082825260208201905092915050565b6000613d8e82613ac0565b613d988185613d72565b9350613da8818560208601613adc565b613db1816138d1565b840191505092915050565b60008115159050919050565b613dd181613dbc565b82525050565b600061014082019050613ded600083018d613851565b613dfa602083018c613851565b8181036040830152613e0c818b613d83565b9050613e1b606083018a613851565b8181036080830152613e2d8189613d83565b905081810360a0830152613e418188613d83565b9050613e5060c0830187613851565b613e5d60e0830186613851565b613e6b610100830185613dc8565b613e79610120830184613851565b9b9a5050505050505050505050565b6000606083016000830151613ea06000860182613ab1565b5060208301518482036020860152613eb88282613b06565b91505060408301518482036040860152613ed28282613b90565b9150508091505092915050565b60006020820190508181036000830152613ef98184613e88565b905092915050565b600081519050919050565b600082825260208201905092915050565b6000819050602082019050919050565b613f3681613dbc565b82525050565b600061014083016000830151613f556000860182613ab1565b506020830151613f686020860182613ab1565b5060408301518482036040860152613f808282613b06565b9150506060830151613f956060860182613ab1565b5060808301518482036080860152613fad8282613b06565b91505060a083015184820360a0860152613fc78282613b06565b91505060c0830151613fdc60c0860182613ab1565b5060e0830151613fef60e0860182613ab1565b50610100830151614004610100860182613f2d565b50610120830151614019610120860182613ab1565b508091505092915050565b60006140308383613f3c565b905092915050565b6000602082019050919050565b600061405082613f01565b61405a8185613f0c565b93508360208202850161406c85613f1d565b8060005b858110156140a857848403895281516140898582614024565b945061409483614038565b925060208a01995050600181019050614070565b50829750879550505050505092915050565b600081519050919050565b600082825260208201905092915050565b6000819050602082019050919050565b600060e0830160008301516140fe6000860182613ab1565b5060208301516141116020860182613ab1565b50604083015184820360408601526141298282613b06565b915050606083015161413e6060860182613ab1565b50608083015184820360808601526141568282613b06565b91505060a083015184820360a08601526141708282613b06565b91505060c083015161418560c0860182613ab1565b508091505092915050565b600061419c83836140e6565b905092915050565b6000602082019050919050565b60006141bc826140ba565b6141c681856140c5565b9350836020820285016141d8856140d6565b8060005b8581101561421457848403895281516141f58582614190565b9450614200836141a4565b925060208a019950506001810190506141dc565b50829750879550505050505092915050565b600060408201905081810360008301526142408185614045565b9050818103602083015261425481846141b1565b90509392505050565b60006040820190506142726000830185613851565b81810360208301526142848184613d83565b90509392505050565b600080604083850312156142a4576142a3613788565b5b60006142b2858286016138b2565b92505060206142c3858286016137b3565b9150509250929050565b600060208201905081810360008301526142e781846141b1565b905092915050565b6000806040838503121561430657614305613788565b5b6000614314858286016137b3565b9250506020614325858286016137b3565b9150509250929050565b61433881613815565b811461434357600080fd5b50565b6000813590506143558161432f565b92915050565b6000806040838503121561437257614371613788565b5b600061438085828601614346565b925050602083013567ffffffffffffffff8111156143a1576143a061378d565b5b6143ad858286016139df565b9150509250929050565b600060e0820190506143cc600083018a613851565b6143d96020830189613851565b81810360408301526143eb8188613d83565b90506143fa6060830187613851565b818103608083015261440c8186613d83565b905081810360a08301526144208185613d83565b905061442f60c0830184613851565b98975050505050505050565b60006040830160008301516144536000860182613ab1565b506020830151848203602086015261446b8282613b06565b9150508091505092915050565b60006020820190508181036000830152614492818461443b565b905092915050565b600060208201905081810360008301526144b48184614045565b905092915050565b7f4e487b7100000000000000000000000000000000000000000000000000000000600052601160045260246000fd5b60006144f682613792565b915061450183613792565b9250828201905080821115614519576145186144bc565b5b92915050565b7f4e487b7100000000000000000000000000000000000000000000000000000000600052602260045260246000fd5b6000600282049050600182168061456657607f821691505b6020821081036145795761457861451f565b5b50919050565b60008190508160005260206000209050919050565b60006020601f8301049050919050565b600082821b905092915050565b6000600883026145e17fffffffffffffffffffffffffffffffffffffffffffffffffffffffffffffffff826145a4565b6145eb86836145a4565b95508019841693508086168417925050509392505050565b6000819050919050565b600061462861462361461e84613792565b614603565b613792565b9050919050565b6000819050919050565b6146428361460d565b61465661464e8261462f565b8484546145b1565b825550505050565b600090565b61466b61465e565b614676818484614639565b505050565b5b8181101561469a5761468f600082614663565b60018101905061467c565b5050565b601f8211156146df576146b08161457f565b6146b984614594565b810160208510156146c8578190505b6146dc6146d485614594565b83018261467b565b50505b505050565b600082821c905092915050565b6000614702600019846008026146e4565b1980831691505092915050565b600061471b83836146f1565b9150826002028217905092915050565b61473482613ac0565b67ffffffffffffffff81111561474d5761474c6138e2565b5b614757825461454e565b61476282828561469e565b600060209050601f8311600181146147955760008415614783578287015190505b61478d858261470f565b8655506147f5565b601f1984166147a38661457f565b60005b828110156147cb578489015182556001820191506020850194506020810190506147a6565b868310156147e857848901516147e4601f8916826146f1565b8355505b6001600288020188555050505b505050505050565b60008151905061480c8161379c565b92915050565b60006020828403121561482857614827613788565b5b6000614836848285016147fd565b91505092915050565b600061484a82613792565b915061485583613792565b925082820390508181111561486d5761486c6144bc565b5b92915050565b7f4e487b7100000000000000000000000000000000000000000000000000000000600052603260045260246000fd5b60006148ad82613792565b91507fffffffffffffffffffffffffffffffffffffffffffffffffffffffffffffffff82036148df576148de6144bc565b5b600182019050919050565b60006040820190506148ff6000830185613d48565b61490c6020830184613851565b9392505050565b61491c81613dbc565b811461492757600080fd5b50565b60008151905061493981614913565b92915050565b60006020828403121561495557614954613788565b5b60006149638482850161492a565b91505092915050565b7f496e73756666696369656e742062616c616e6365000000000000000000000000600082015250565b60006149a2601483613d72565b91506149ad8261496c565b602082019050919050565b600060208201905081810360008301526149d181614995565b9050919050565b60006149f36149ee6149e9846137f5565b614603565b6137f5565b9050919050565b6000614a05826149d8565b9050919050565b6000614a17826149fa565b9050919050565b614a2781614a0c565b82525050565b6000604082019050614a426000830185614a1e565b614a4f6020830184613851565b9392505050565b6000819050919050565b6000614a7b614a76614a7184614a56565b614603565b613792565b9050919050565b614a8b81614a60565b82525050565b6000604082019050614aa66000830185614a1e565b614ab36020830184614a82565b939250505056fea2646970667358221220e28385ab284ac91aabf0348a037b45d5893e0cc52c3a3ddab84aee8c5f03918664736f6c63430008110033",
  "immutableReferences": {},
  "source": "// SPDX-License-Identifier: MIT\npragma solidity >=0.4.22 <0.9.0;\npragma experimental ABIEncoderV2;\nimport \"./DonTranToken.sol\";\n\ncontract transfusioncontract {\n  uint value; \n  address payable[]  public alladdress;\n  address payable[] public alladdressrecp;\n  address public authaddress;\n  address payable _auth;\n  DonTranToken donTranToken;\n\n  constructor (){\n    _auth=payable(msg.sender);\n    //donTranToken=DonTranToken(_token);\n  }\n\n  struct Authreg{\n    uint authuserid;\n    string username;\n\n  }\n  uint numberofauthsreg=0;\n  mapping(address => Authreg) public authusers;\n\n  struct Donorreg{\n    uint donaruserid;\n    string username;\n    uint [] donoridlist;\n  }\n  uint numberofdonorsreg=0;\n  mapping(address => Donorreg) public donorusers;\n    \n    \n\n   struct Recipientreg{\n    uint recipientuserid;\n    string username;\n    uint [] recipientidlist;\n  }\n  uint numberofrecipientsreg=0;\n  mapping(address => Recipientreg) public recipientusers;\n\n  struct Donorsprofile{\n     uint userid;\n     uint donorid;\n     string donarname;\n     uint donorage;\n     string gender;\n     string bloodgrp;\n      uint status;\n      uint recpId;\n      bool req;\n      uint claimstatus;\n  }\n\n  \n  int initialvalue=0;\n  uint numberofdonors=0;\n  mapping(uint => Donorsprofile) public donors;\n\n  struct recptransdata{\n    uint data;\n  }\n  mapping(address => recptransdata) public trxndata;\n\n  modifier onlyDonor{\n       require(donorusers[msg.sender].donaruserid!=0);\n       _;\n    }\n\n    modifier onlyRecipient{\n       require(recipientusers[msg.sender].recipientuserid!=0);\n       _;\n    }\n\n    modifier onlyAuthorizer{\n       require(authusers[msg.sender].authuserid!=0);\n       _;\n    }\n\n  function settokenaddress(address _tokenadd) public{\n        donTranToken=DonTranToken(_tokenadd);\n\n  }\n  function getbalance() public view returns(uint){\n    return donTranToken.balanceOf(msg.sender);\n  }\n  \n  function getauthuser()public view returns(Authreg memory){\n\n     Authreg memory authuser=authusers[msg.sender];\n      return authuser;\n  }\n\n  function signupauth(address authuseraddress,string memory _username) public{\n    numberofauthsreg=numberofauthsreg+1;\n    authusers[authuseraddress]=Authreg(numberofauthsreg,_username);\n    authaddress=authuseraddress;\n    //donTranToken.loadtokens(authuseraddress, 50);\n  }\n\n  \n\n  function signupdonor(address payable donaruseraddress,string memory _username) public{\n    numberofdonorsreg=numberofdonorsreg+1;\n    uint [] memory donoridlist;\n   // donorusers[donaruseraddress]=Donorreg(numberofdonorsreg,_username,_contact,_daddress,donoridlist);\n       donorusers[donaruseraddress]=Donorreg(numberofdonorsreg,_username,donoridlist);\n    alladdress.push(donaruseraddress);\n    // donTranToken.approve(_auth, 200000000000000000000);\n    // donTranToken.allowance(_auth,donaruseraddress);\n    donTranToken.transfer(donaruseraddress, 50000000000000000000);\n  }\n\n  function signuprecipient(address payable recipientuseraddress,string memory _username) public{\n    numberofrecipientsreg=numberofrecipientsreg+1;\n    uint [] memory recipientidlist;\n    recipientusers[recipientuseraddress]=Recipientreg(numberofrecipientsreg,_username,recipientidlist);\n    alladdressrecp.push(recipientuseraddress);\n    // donTranToken.approve(_auth, 200000000000000000000);\n    // donTranToken.allowance(_auth,recipientuseraddress);\n    // donTranToken.transferFrom(_auth, recipientuseraddress, 200000000000000000000);\n    donTranToken.transfer(recipientuseraddress, 50000000000000000000);\n  }\n\n  function adddonors(address donaraddress,string memory _donorname,uint _donorage,string memory _gender,string memory _bloodgrp,uint _status) public onlyDonor{\n        numberofdonors=numberofdonors+1;\n        uint userid=donorusers[msg.sender].donaruserid;\n        string memory donarname=donorusers[msg.sender].username;\n        donorusers[donaraddress].donoridlist.push(numberofdonors);\n        donors[numberofdonors]=Donorsprofile(userid,numberofdonors,donarname,_donorage, _gender,_bloodgrp,_status,0,false,0);\n  }\n\n  function fetchdonors() public view returns(Donorsprofile[] memory) {\n    Donorsprofile [] memory currentdonor= new Donorsprofile [] (numberofdonors);\n    uint m=0;\n    \n    // temp=donorusers[alladdress[k]].donoridlist.length\n       for(uint k=0;k<alladdress.length;k++){\n      for(uint i=0;i<donorusers[alladdress[k]].donoridlist.length;i++){\n            currentdonor[m]= donors[donorusers[alladdress[k]].donoridlist[i]];\n            m++;\n         }\n       }\n      \n      \n      return currentdonor;\n  }\n\n  function fetchdonoruser() public view returns(Donorreg memory) {\n       \n      Donorreg memory currentdonorusers=donorusers[msg.sender];\n      return currentdonorusers;\n  }\n\n  struct RecipientProfile{\n    uint userid;\n    uint recipientid;\n     string recipientname;\n     uint recipientage;\n     string gender;\n     string reqbloodgrp;\n     uint status;\n  }\n\n  uint numberofrecipients=0;\n  mapping(uint => RecipientProfile) public recipients;\n\n  function addrecipients(address recipientaddress,string memory _recipientname,uint _recipientage,string memory _gender,string memory _reqbloodgrp,uint _status) public onlyRecipient{\n        numberofrecipients=numberofrecipients+1;\n        uint userid=recipientusers[msg.sender].recipientuserid;\n        string memory recipientname=recipientusers[msg.sender].username;\n         recipientusers[recipientaddress].recipientidlist.push(numberofrecipients);\n        recipients[numberofrecipients]=RecipientProfile(userid,numberofrecipients,recipientname,_recipientage, _gender,_reqbloodgrp,_status);\n  }\n\n  function fetchrecipients() public view returns(RecipientProfile[] memory) {\n       \n      RecipientProfile[] memory currentrecipients=new RecipientProfile[](numberofrecipients);\n      uint m=0;\n      for(uint k=0;k<alladdressrecp.length;k++){\n      for(uint i=0;i<recipientusers[alladdressrecp[k]].recipientidlist.length;i++){\n            currentrecipients[m]= recipients[recipientusers[alladdressrecp[k]].recipientidlist[i]];\n            m++;\n         }\n       }\n      return currentrecipients;\n  }\n\n  function fetchrecipientuser() public view returns(Recipientreg memory) {\n       \n      Recipientreg memory currentrecipientusers=recipientusers[msg.sender];\n      return currentrecipientusers;\n  }\n\n  function approvebyauthorizer(uint index)public onlyAuthorizer{\n    donors[index].status=1;\n\n    // if(donTranToken.balanceOf(msg.sender)==0){\n    //   address payable donaddress;\n    //    for(uint i=0;i<alladdress.length;i++){\n    //      if(donorusers[alladdress[i]].donaruserid==donors[index].userid){\n    //       donaddress=alladdress[i];\n    //       break;\n    //      }\n    //    }\n\n      // donTranToken.approve(msg.sender,20* 10 ** 18);\n      // donTranToken.transferFrom(msg.sender, donaddress, 20* 10 ** 18);\n    // }\n          \n  } \n\n  function denybyauthorizer(uint index)public onlyAuthorizer{\n    donors[index].status=2;\n          \n  } \n\n  function approvebyauthorizerforrecp(uint index)public onlyAuthorizer{\n    recipients[index].status=1;\n          \n  }  \n\n  function denybyauthorizerforrecp(uint index)public onlyAuthorizer{\n    recipients[index].status=2;\n          \n  }     \n\n  function getdonrec() public view returns(uint, uint){\n        \n        return (numberofdonors,numberofrecipients);\n    }\n\n    function claimdonor(uint donorindex)public{\n      donors[donorindex].recpId=recipientusers[msg.sender].recipientuserid;\n      donors[donorindex].req=true;\n      donors[donorindex].claimstatus=1;\n    }\n\n    function approveclaim(uint donorindex)public onlyAuthorizer{\n      donors[donorindex].claimstatus=2;\n    }\n\n    function denyclaim(uint donorindex)public onlyAuthorizer{\n      donors[donorindex].claimstatus=3;\n    }\n\n    function fetchdonarrecpdata()public view returns(Donorsprofile[] memory,RecipientProfile[] memory){\n       Donorsprofile [] memory donordata= new Donorsprofile [] (numberofdonors);\n       RecipientProfile[] memory recipientdata=new RecipientProfile[](numberofrecipients);\n        uint x=0;\n    \n       for(uint k=0;k<alladdress.length;k++){\n      for(uint i=0;i<donorusers[alladdress[k]].donoridlist.length;i++){\n            donordata[x]= donors[donorusers[alladdress[k]].donoridlist[i]];\n            x++;\n         }\n       }  \n\n       uint y=0;\n      for(uint k=0;k<alladdressrecp.length;k++){\n      for(uint i=0;i<recipientusers[alladdressrecp[k]].recipientidlist.length;i++){\n            recipientdata[y]= recipients[recipientusers[alladdressrecp[k]].recipientidlist[i]];\n            y++;\n         }\n       }   \n\n       return (donordata,recipientdata);\n    }\n    \n    function fetchtransactiondata(address user) public view returns(uint){\n     uint trxnval=donTranToken.balanceOf(user);\n     uint fintrxanval=trxnval-trxndata[user].data;\n     return fintrxanval;\n\n    }\n\n    function gettransfusionsummarydata(uint userid) public view returns(Donorreg memory){\n      address add;\n       for(uint i=0;i<alladdress.length;i++){\n         if(donorusers[alladdress[i]].donaruserid==userid){\n          add=alladdress[i];\n          break;\n         }\n       }\n        Donorreg memory duserdata=donorusers[add];\n      return duserdata;\n\n    }\n\n    function performtransaction(uint userid,uint amount) public{\n     address payable donaddress;\n       for(uint i=0;i<alladdress.length;i++){\n         if(donorusers[alladdress[i]].donaruserid==userid){\n          donaddress=alladdress[i];\n          break;\n         }\n       }\n       require(donTranToken.balanceOf(msg.sender)>=amount,\"Insufficient balance\");\n       trxndata[msg.sender].data=trxndata[msg.sender].data+amount;\n        donTranToken.transfer(donaddress, amount);\n    }\n\n    function performairdrop(address user,uint amount) public{\n       donTranToken.transfer(user, amount);\n    }\n\n    \n\n\n}\n\n",
  "sourcePath": "/Users/arjunragavendaar/Documents/Block Chain/Digital_Transfusion/digitaltransfusion-contract/contracts/transfusioncontract.sol",
  "compiler": {
    "name": "solc",
    "version": "0.8.17+commit.8df45f5f.Emscripten.clang"
  },
  "schemaVersion": "3.4.10",
  "updatedAt": "2022-12-03T22:22:45.584Z",
  "devdoc": {
    "kind": "dev",
    "methods": {},
    "version": 1
  },
  "userdoc": {
    "kind": "user",
    "methods": {},
    "version": 1
  }
}