{
  "contractName": "transfusioncontract",
  "abi": [
    {
      "inputs": [
        {
          "internalType": "uint256",
          "name": "x",
          "type": "uint256"
        }
      ],
      "name": "initialize",
      "outputs": [],
      "stateMutability": "nonpayable",
      "type": "function"
    },
    {
      "inputs": [],
      "name": "get",
      "outputs": [
        {
          "internalType": "uint256",
          "name": "",
          "type": "uint256"
        }
      ],
      "stateMutability": "view",
      "type": "function"
    },
    {
      "inputs": [
        {
          "internalType": "uint256",
          "name": "n",
          "type": "uint256"
        }
      ],
      "name": "increment",
      "outputs": [],
      "stateMutability": "nonpayable",
      "type": "function"
    },
    {
      "inputs": [
        {
          "internalType": "uint256",
          "name": "n",
          "type": "uint256"
        }
      ],
      "name": "decrement",
      "outputs": [],
      "stateMutability": "nonpayable",
      "type": "function"
    }
  ],
  "bytecode": "0x608060405234801561001057600080fd5b50610263806100206000396000f3fe608060405234801561001057600080fd5b506004361061004c5760003560e01c80633a9ebefd146100515780636d4ce63c1461006d5780637cf5dab01461008b578063fe4b84df146100a7575b600080fd5b61006b6004803603810190610066919061013f565b6100c3565b005b6100756100da565b604051610082919061017b565b60405180910390f35b6100a560048036038101906100a0919061013f565b6100e3565b005b6100c160048036038101906100bc919061013f565b6100fa565b005b806000546100d191906101c5565b60008190555050565b60008054905090565b806000546100f191906101f9565b60008190555050565b8060008190555050565b600080fd5b6000819050919050565b61011c81610109565b811461012757600080fd5b50565b60008135905061013981610113565b92915050565b60006020828403121561015557610154610104565b5b60006101638482850161012a565b91505092915050565b61017581610109565b82525050565b6000602082019050610190600083018461016c565b92915050565b7f4e487b7100000000000000000000000000000000000000000000000000000000600052601160045260246000fd5b60006101d082610109565b91506101db83610109565b92508282039050818111156101f3576101f2610196565b5b92915050565b600061020482610109565b915061020f83610109565b925082820190508082111561022757610226610196565b5b9291505056fea264697066735822122033dee30a62ec83775e581b73dcf7e8bedc8541943e390a5ba4c931e38cbc4d1964736f6c63430008110033",
  "immutableReferences": {},
  "source": "// SPDX-License-Identifier: MIT\npragma solidity >=0.4.22 <0.9.0;\n\ncontract transfusioncontract {\n  uint value; \n\nfunction initialize (uint x) public { \n value = x; } \n\nfunction get() view public returns (uint) { \nreturn value; } \n\nfunction increment (uint n) public { \nvalue = value + n; // return (optional) \n} \n\nfunction decrement (uint n) public { \n value = value - n; \n\n}\n}\n",
  "sourcePath": "/Users/arjunragavendaar/Documents/Block Chain/Digital_Transfusion/digitaltransfusion-contract/contracts/transfusioncontract.sol",
  "compiler": {
    "name": "solc",
    "version": "0.8.17+commit.8df45f5f.Emscripten.clang"
  },
  "schemaVersion": "3.4.10",
  "updatedAt": "2022-10-19T21:14:59.967Z",
  "devdoc": {
    "kind": "dev",
    "methods": {},
    "version": 1
  },
  "userdoc": {
    "kind": "user",
    "methods": {},
    "version": 1
  }
}